:100000000C9434000C9451000C9451000C94510049
:100010000C9451000C9451000C9451000C9451001C
:100020000C9451000C9451000C9451000C9451000C
:100030000C9451000C9451000C9451000C945100FC
:100040000C9451000C9451000C948B000C945300B0
:100050000C9451000C9451000C9451000C945100DC
:100060000C9451000C94510011241FBECFEFD8E026
:10007000DEBFCDBF11E0A0E0B1E0E8E0F5E002C0F6
:1000800005900D92A430B107D9F721E0A4E0B1E0CA
:1000900001C01D92AB34B207E1F70E943C020C9400
:1000A00082020C9400001F920F920FB60F9211243F
:1000B0002F933F934F935F936F937F938F939F9370
:1000C000AF93BF93EF93FF9387E091E00E942901E4
:1000D000882331F08091C1008F7D8093C1000AC0D8
:1000E00087E091E00E946F018093C60087E091E075
:1000F0000E946101FF91EF91BF91AF919F918F910C
:100100007F916F915F914F913F912F910F900FBE13
:100110000F901F9018951F920F920FB60F921124F7
:100120002F933F934F935F936F937F938F939F93FF
:10013000AF93BF93EF93FF9389E291E00E94300168
:10014000882319F08091C60006C06091C60089E23C
:1001500091E00E943D01FF91EF91BF91AF919F917E
:100160008F917F916F915F914F913F912F910F9060
:100170000FBE0F901F90189589E291E00E94250113
:1001800087E091E00E9425019FB7F8941092C50086
:1001900087E68093C4001092C00086E08093C2007E
:1001A000E1ECF0E088E180838081806880839FBFFC
:1001B000089587E091E00E9429018823D1F39FB739
:1001C000F8948091C1008F778093C1008091C10025
:1001D000877E8093C1009FBF89E291E00C94250146
:1001E000CF9389E291E00E9429018111FACF89E23F
:1001F00091E00E946F01C82F89E291E00E946101A5
:100200008C2FCF91089589E291E00E94290191E01D
:1002100089270895CF93DF931F92CDB7DEB7682F5C
:1002200087E091E069830E94300169818111F8CFF4
:1002300087E091E00E943D018091C100806280933F
:10024000C1000F90DF91CF910895FC0111A210A27F
:100250000895FC0181E020A191A1291380E0089577
:10026000FC0181A18F5F803211F490E001C0982FD2
:1002700081E020A1921380E00895EF92FF921F93F6
:10028000CF93DF931F92CDB7DEB77C011FB7F894F1
:1002900069830E943001698181110BC0F70181A13E
:1002A000E80FF11D60838F5F803209F480E0F70171
:1002B00081A31FBF0F90DF91CF911F91FF90EF900F
:1002C0000895FC019FB7F89480A121A1821729F01D
:1002D0008F5F803209F480E080A39FBF0895FC0106
:1002E00020A1E20FF11D80810895882319F085B7C0
:1002F0008F7E02C085B7806185BF0895FC01862F7F
:10030000DF011197413079F49C9121E030E0062E15
:1003100001C0220F0A94EAF7922B9C9390812095BA
:10032000292320830EC04C9121E030E001C0220F30
:100330006A95EAF7922F909594239C939081922B43
:100340009083BF010895FB01908121E030E0082EE9
:1003500001C0220F0A94EAF7442319F0922B9083EC
:1003600008952095292320830895FB0132979081D9
:1003700021E030E002C0220F331F8A95E2F7892F77
:1003800090E02823392381E0232B09F480E00895AD
:10039000FB013297908121E030E0082E01C0220F4E
:1003A0000A94EAF7922B90830895FC01A081B18111
:1003B0004E9181E090E09C01028002C0220F331F29
:1003C0000A94E2F7209524232C93A081B1812C91EB
:1003D000028002C0880F991F0A94E2F78095822359
:1003E0008C93118210820895CF93DF93EC01899151
:1003F000882319F00E940A01FACF8DE00E940A01B9
:100400008AE0DF91CF910C940A01CF92DF92EF92B4
:10041000FF920F931F93CF93DF938C01D62E0E94F0
:10042000F000F82E992787FD90950E947602892B7F
:10043000B1F3C02EC02FD12FEC2EEC188F2D9927A1
:1004400087FD90950E947602892B79F48E2D90E09D
:10045000F801E80FF91F1082DF91CF911F910F91E2
:10046000FF90EF90DF90CF900895ED1478F7F99218
:100470000E94F000F82EE0CF41E065E085E290E0D8
:100480000E947E0160930401709305018093060130
:1004900040E00E94A3010E94BC0078940E940301E6
:1004A0008823E1F30E94F000853461F08335A1F0E8
:1004B0008134A1F7609104017091050180910601DA
:1004C00040E007C060910401709105018091060130
:1004D00041E00E94A301E2CF1D9B05C080E091E0B6
:1004E0000E94F401DBCF82E091E0FACF803209F084
:1004F00091110C947F0280528F55D8F70895992757
:0805000088270895F894FFCF4D
:04050800310030008E
:00000001FF
